:1000000075812875800075A0000200657520007557
:10001000210075220F7523007524007D007E0022CB
:10002000E9EDF520EEF521120194120215E96403C1
:100030006033E96402600FE9600280E47D007E00C5
:10004000EFF52202007C7D007E0012019412021561
:10005000E964036010E9640260ECE9600280C1EFCA
:10006000F52202007C110C120194120215E96403BE
:1000700060F3E960F0E9640260EB80A4EDF523EE43
:10008000F524120194120215E9640360D8E96402B0
:1000900060B4E960CA020098EDF523EEF524120180
:1000A00094120215E9640360BCE964026005E9602A
:1000B0001780E51200E4E864EE7005E964EE60A5DF
:1000C000E8F520E9F52101461200E4E864EE700548
:1000D000E964EE6090E8F520E9F521EFF5227D0076
:1000E0007E008098C0E0EAC0E0EBC0E0EDC0E0EE4A
:1000F000C0E0A820A921AA23AB24E522B40C121247
:100100000332742799405E7005740F9840570201BE
:1001100075E522B4082112033F74279940477014F3
:10012000740F98500F020165E8FAE9FB7800790036
:1001300012033FD3020175E522B4041812034DEBFC
:100140007023EA7020742799401B7005740F984043
:1001500014020175E522B4000CEA7003EB6006128C
:10016000039202017578EE79EE74EEF5A0F5801237
:10017000030D020185E8FDE9FE12044AEDF5A0EE4B
:10018000F58012030DD0E0EED0E0EDD0E0EBD0E052
:10019000EAD0E022C0E0E8C0E0E9C0E0EBC0E075F2
:1001A000900FE590540F640F70F875900FE5905420
:1001B0000F640F60F8F8640FFB1203037590EF797A
:1001C0001000E590540F6B7A00603B1203037590AA
:1001D000DF792000E590540F6B7A01602912030348
:1001E0007590BF794000E590540F6B7A026017124A
:1001F000030375907F798000E590540F6B7A03605C
:100200000575900F808EE948FFD0E0FBD0E0F9D073
:10021000E0F8D0E022EFFCEA75F004A4FAEC540F09
:100220007C000C03540F70FA1CEA2CF9B40205741C
:10023000000202B1B4050574030202B1B4060574EC
:10024000020202B1B4070574010202B1B4090574D7
:10025000060202B1B40A0574050202B1B40B0574BA
:10026000040202B1B40D0574090202B1B40E0574A2
:10027000080202B1B40F0574070202B1B40303020D
:1002800002F2B40C030202A6B408030202A6B404EC
:10029000030202A6B400030202A6B4010F0202A0E8
:1002A0007902FF0202C67900FF0202C67FFF020246
:1002B000C67901FF12044A1202C7EDF5A0EEF580DF
:1002C00012030D1203E422C0E0EFC0E0EE7F04331E
:1002D0004005DFFB0202DDD0E0FF0202EFD0E0C408
:1002E0007F0433C0E0ED33FDEE33FED0E0DFF3D02A
:1002F000E0227D00EDF5A07E00EEF58012030D7981
:100300000380C37590FFE59064FF70FA2220F8190E
:10031000C0E0EDC0E0EEC0E07D32E4FE12032ADD75
:10032000FAD0E0FED0E0FDD0E0220000000000DEC8
:10033000F922C0E0E82AF8E93BF9A2D2D0E022C0D5
:10034000E0E8C39AF8E99BF9A2D2D0E022C0E0C06D
:10035000F0C082E88AF0A4C0E0C0F0E88BF0A4F816
:10036000D0E028F8E435F0F582EA89F0A428F8E531
:100370008235F0F582E43400C0E0EB89F0A42582F8
:10038000FAD0E035F0FBE8F9D0E0F8D082D0F0D038
:10039000E022C0E0ECC0E0EDC0E0EEC0E0EFC0E085
:1003A0007F007E0075F010C3E833F8E933F9EE33CF
:1003B000FEEF33FFEEC39AF582EF9BF583B3500453
:1003C000AF83AE82EC33FCED33FDD5F0DAEDF9EC22
:1003D000F8EFFBEEFAD0E0FFD0E0FED0E0FDD0E099
:1003E000FCD0E022C0E0E8C0E0E9C0E0EAC0E0EB19
:1003F000C0E0ECC0E0ED540FFBEDC4540F75F00A03
:10040000A42BFBE5F07C003CFCEE540F75F064A4DB
:10041000F8A9F0EBFAECFB7132E8FBE9FCEEC4540E
:100420000FF879007AE8EBC0E07B03714DD0E0FA79
:10043000ECFB7132E8FDE9FED0E0FCD0E0FBD0E05F
:10044000FAD0E0F9D0E0F8D0E022C0E0E8C0E0E97E
:10045000C0E0EAC0E0EBC0E0ECC0E0EDF8EEF97B14
:10046000007A0A7192EAFD7E007A0A7B007192EDB1
:10047000C42AC4FD7A0A7B007192EAC428C4FED063
:10048000E0FCD0E0FBD0E0FAD0E0F9D0E0F8D0E03A
:010490002249
:00000001FF
