:020000040000FA
:100000008316803081000030850000308600831226
:1000100000308D003020362000308E000E08890020
:1000200083160814831208088C0041208E0A8D0A5A
:10003000003C031D0E2850300D0290009009023044
:1000400090071C303C20900B212850300D0290006E
:1000500090090230900718303C20900B2B281B2869
:100060000130860085100510472008000D308600FD
:1000700085100510472008008600851005104720D0
:1000800008000C0886008514051047200800051597
:04009000051108004E
:00000001FF
