:10000000000075812075900075900020810280F8B5
:100010007590012080EF20820280F8759001759024
:100020000412009312009375900020800E2083022A
:1000300080F875900112008302004675900112004D
:100040009312009380BF7590021200931200937573
:10005000900020800A20840280F875900180B1759C
:100060009001120093120093809B759001120093EF
:100070001200937590007A3920800A120093DAF802
:1000800002009280E520810280FB2082F62080F52C
:1000900080F822C0E0EDC0E0EEC0E07D32E4FE1268
:1000A00000ADDDFAD0E0FED0E0FDD0E0220000009F
:0500B0000000DEF92252
:00000001FF
